:100000000C942A000C9434000C9434000C943400AA
:100010000C9434000C9434000C9434000C94340090
:100020000C9434000C9434000C9434000C94340080
:100030000C9434000C9434000C9434000C94340070
:100040000C9434000C9434000C9434000C94340060
:100050000C94340011241FBECFE5D8E0DEBFCDBF25
:100060000E9409030C9480030C9400003E9A3F9870
:100070003D98309A319A329A379A089597B1907E86
:1000800097B997B1982B97B9369A349BFECF0895BC
:1000900024B135B1C9010895A0E0B0E0BC01CD01A3
:1000A00028E833E140E050E00E944D039B01AC01A1
:1000B0008AE056954795379527958A95D1F7C901D6
:1000C0000895813029F1813038F0823009F43CC044
:1000D000833009F06EC053C0442361F42AB381E039
:1000E00090E002C0880F991F6A95E2F780958223FD
:1000F0008ABB0895413009F05CC02AB381E090E0EA
:1001000002C0880F991F6A95E2F7282B2ABB089531
:10011000442361F427B381E090E002C0880F991F67
:100120006A95E2F78095822387BB0895413009F0F4
:1001300040C027B381E090E002C0880F991F6A9504
:10014000E2F7282B27BB0895442361F424B381E010
:1001500090E002C0880F991F6A95E2F7809582238C
:1001600084BB0895413029F524B381E090E002C0BA
:10017000880F991F6A95E2F7282B24BB0895442322
:1001800061F421B381E090E002C0880F991F6A9565
:10019000E2F78095822381BB0895413051F421B369
:1001A00081E090E002C0880F991F6A95E2F7282B42
:1001B00021BB0895813029F1813038F0823009F473
:1001C0003CC0833009F06EC053C0442361F42BB3AC
:1001D00081E090E002C0880F991F6A95E2F7809550
:1001E00082238BBB0895413009F05CC02BB381E0C2
:1001F00090E002C0880F991F6A95E2F7282B2BBB6D
:100200000895442361F428B381E090E002C0880F90
:10021000991F6A95E2F78095822388BB0895413043
:1002200009F040C028B381E090E002C0880F991F18
:100230006A95E2F7282B28BB0895442361F425B37F
:1002400081E090E002C0880F991F6A95E2F78095DF
:10025000822385BB0895413029F525B381E090E0E4
:1002600002C0880F991F6A95E2F7282B25BB0895D5
:10027000442361F422B381E090E002C0880F991F0B
:100280006A95E2F78095822382BB0895413051F44C
:1002900022B381E090E002C0880F991F6A95E2F7CF
:1002A000282B22BB0895813051F0813030F082300C
:1002B00041F0833079F080E0089589B303C086B3BC
:1002C00001C083B390E002C0959587956A95E2F7E7
:1002D0008170089580B390E002C0959587956A95E6
:1002E000E2F781700895813091F0813028F08230FA
:1002F000C9F0833069F521C0662319F48AB3807F81
:1003000004C0613029F58AB38F608ABB08956623E3
:1003100019F487B3807F04C06130D1F487B38F6054
:1003200087BB0895662319F484B3807F04C06130CD
:1003300079F484B38F6084BB0895662321F481B37C
:10034000807F81BB0895613019F481B38F6081BBD8
:100350000895813071F0813028F0823089F0833047
:10036000E1F415C08BB3807F8BBB8BB3862B8BBB2B
:10037000089588B3807F88BB88B3862B88BB089597
:1003800085B3807F85BB85B3862B85BB089582B3FB
:10039000807F82BB82B3862B82BB0895813091F02F
:1003A000813028F08230C9F0833069F521C066239E
:1003B00019F48AB38F7004C0613029F58AB3806F55
:1003C0008ABB0895662319F487B38F7004C0613027
:1003D000D1F487B3806F87BB0895662319F484B383
:1003E0008F7004C0613079F484B3806F84BB08954A
:1003F000662321F481B38F7081BB0895613019F4B5
:1004000081B3806F81BB0895813081F0813028F005
:100410008230A9F0833021F51BC08BB38F708BBB6A
:100420008BB36295607F862B8BBB089588B38F70EA
:1004300088BB88B36295607F862B88BB089585B39F
:100440008F7085BB85B36295607F862B85BB0895D1
:1004500082B38F7082BB82B36295607F862B82BB32
:1004600008951F93182F82E060E041E00E94DA00B7
:1004700082E061E040E00E94DA0082E090E0612FDB
:1004800070E00E94040282E062E041E00E94DA0033
:1004900080E197E20197F1F782E062E040E00E949C
:1004A000DA0080ED97E00197F1F71F9108951F930F
:1004B000182F82958F700E943102812F0E94310285
:1004C0001F9108951F93CF93DF93EC0110E003C0B9
:1004D0000E9457021F5FFE01E10FF11D80818823FA
:1004E000B9F7DF91CF911F910895FF920F931F935A
:1004F000DF93CF9300D000D00F92CDB7DEB79C0131
:10050000009729F480E00E94570240E017C040E0C5
:100510008E010F5F1F4FF801E40FF11DC9016AE062
:1005200070E00E946C038083C9016AE070E00E9461
:100530006C039B014F5F6115710569F7F42EFA9406
:100540008F2D992787FD90958E010F5F1F4F080F04
:10055000191F08C0F8018081805D0E945702FA943B
:1005600001501040F7FEF6CF0F900F900F900F90B4
:100570000F90CF91DF911F910F91FF9008951F93DE
:10058000182F82E060E040E00E94DA0082E061E043
:1005900040E00E94DA0082E090E0612F70E00E946B
:1005A000040282E062E041E00E94DA0080E197E22A
:1005B0000197F1F782E062E040E00E94DA0080ED0E
:1005C00097E00197F1F71F91089582E00E94BF0222
:1005D00082E00E94BF0288E20E94BF0280ED97E0A5
:1005E0000197F1F780E00E94BF028FE00E94BF02F6
:1005F00080E00E94BF0281E00E94BF0280EA9FE08B
:100600000197F1F780E00E94BF0286E00E94BF02DE
:100610000895EF92FF920F931F93CF93DF9382E0A1
:1006200060E041E00E94610082E061E041E00E9400
:10063000610082E062E041E00E94610082E061E0EE
:100640000E94CE0180E060E040E00E9461000E94D4
:10065000E5020E94360000E010E088ECE82EF12C64
:1006600080E00E943E000E9448000E944C00EC0185
:100670008017910751F080E00E94BF0281E00E9444
:10068000BF02CE010E9475028E0188E893E1F70156
:100690003197F1F70197D9F7E3CF629FD001739FAC
:1006A000F001829FE00DF11D649FE00DF11D929F0E
:1006B000F00D839FF00D749FF00D659FF00D99274D
:1006C000729FB00DE11DF91F639FB00DE11DF91F71
:1006D000BD01CF0111240895AA1BBB1B51E107C026
:1006E000AA1FBB1FA617B70710F0A61BB70B881FC2
:1006F000991F5A95A9F780959095BC01CD01089551
:04070000F894FFCF9B
:00000001FF
