:100000000C942A000C943C000C943C000C943C0092
:100010000C943C000C943C000C943C000C943C0070
:100020000C943C000C943C000C944C050C943C004B
:100030000C943C000C943C000C943C000C943C0050
:100040000C943C000C943C000C943C000C943C0040
:100050000C943C0011241FBECFE5D8E0DEBFCDBF1D
:1000600020E0A0E6B0E001C01D92A236B207E1F7A1
:100070000E943B050C9498050C940000CF93DF93ED
:1000800000D00F92CDB7DEB789836A834B83898115
:10009000882F90E08130910509F442C082309105AB
:1000A0001CF4892B49F0DEC08230910509F46CC044
:1000B000039709F49DC0D6C08B818823B9F48AE3E5
:1000C00090E0FC018081482F8A81282F30E081E078
:1000D00090E002C0880F991F2A95E2F78095242F9F
:1000E00028238AE390E0FC012083B5C08B81813016
:1000F00009F0B1C08AE390E0FC018081482F8A8139
:10010000282F30E081E090E002C0880F991F2A95E7
:10011000E2F7242F282B8AE390E0FC0120839BC088
:100120008B818823B9F487E390E0FC018081482F1C
:100130008A81282F30E081E090E002C0880F991F6B
:100140002A95E2F78095242F282387E390E0FC018D
:10015000208383C08B81813009F07FC087E390E0EA
:10016000FC018081482F8A81282F30E081E090E0D7
:1001700002C0880F991F2A95E2F7242F282B87E3C6
:1001800090E0FC01208369C08B818823B9F484E36B
:1001900090E0FC018081482F8A81282F30E081E0A7
:1001A00090E002C0880F991F2A95E2F78095242FCE
:1001B000282384E390E0FC01208351C08B818130AF
:1001C00009F04DC084E390E0FC018081482F8A81D2
:1001D000282F30E081E090E002C0880F991F2A9517
:1001E000E2F7242F282B84E390E0FC01208337C022
:1001F0008B818823B9F481E390E0FC018081482F52
:100200008A81282F30E081E090E002C0880F991F9A
:100210002A95E2F78095242F282381E390E0FC01C2
:1002200020831FC08B818130E1F481E390E0FC01E9
:100230008081482F8A81282F30E081E090E002C041
:10024000880F991F2A95E2F7242F282B81E390E04D
:10025000FC01208306C0000005C0000003C00000B0
:1002600001C0000000000F900F900F90DF91CF9120
:100270000895CF93DF9300D00F92CDB7DEB7898377
:100280006A834B838981882F90E08130910509F43E
:1002900042C0823091051CF4892B49F0DEC08230C7
:1002A000910509F46CC0039709F49DC0D6C08B81F9
:1002B0008823B9F48BE390E0FC018081482F8A8188
:1002C000282F30E081E090E002C0880F991F2A9526
:1002D000E2F78095242F28238BE390E0FC01208314
:1002E000B5C08B81813009F0B1C08BE390E0FC0197
:1002F0008081482F8A81282F30E081E090E002C081
:10030000880F991F2A95E2F7242F282B8BE390E082
:10031000FC0120839BC08B818823B9F488E390E0A3
:10032000FC018081482F8A81282F30E081E090E015
:1003300002C0880F991F2A95E2F78095242F282361
:1003400088E390E0FC01208383C08B81813009F039
:100350007FC088E390E0FC018081482F8A81282FAC
:1003600030E081E090E002C0880F991F2A95E2F703
:10037000242F282B88E390E0FC01208369C08B8127
:100380008823B9F485E390E0FC018081482F8A81BD
:10039000282F30E081E090E002C0880F991F2A9555
:1003A000E2F78095242F282385E390E0FC01208349
:1003B00051C08B81813009F04DC085E390E0FC0194
:1003C0008081482F8A81282F30E081E090E002C0B0
:1003D000880F991F2A95E2F7242F282B85E390E0B8
:1003E000FC01208337C08B818823B9F482E390E03D
:1003F000FC018081482F8A81282F30E081E090E045
:1004000002C0880F991F2A95E2F78095242F282390
:1004100082E390E0FC0120831FC08B818130E1F4F6
:1004200082E390E0FC018081482F8A81282F30E010
:1004300081E090E002C0880F991F2A95E2F7242FEF
:10044000282B82E390E0FC01208306C0000005C059
:10045000000003C0000001C0000000000F900F90DA
:100460000F90DF91CF910895CF93DF9300D0CDB758
:10047000DEB789836A838981882F90E08130910576
:10048000E1F0823091051CF4892B39F046C08230AE
:10049000910519F1039789F140C089E390E0FC01CF
:1004A0008081882F90E02A81222F30E002C095952C
:1004B00087952A95E2F7817031C086E390E0FC01D0
:1004C0008081882F90E02A81222F30E002C095950C
:1004D00087952A95E2F7817021C086E390E0FC01C0
:1004E0008081882F90E02A81222F30E002C09595EC
:1004F00087952A95E2F7817011C086E390E0FC01B0
:100500008081882F90E02A81222F30E002C09595CB
:1005100087952A95E2F7817001C080E00F900F90D7
:10052000DF91CF910895CF93DF9300D0CDB7DEB7A1
:1005300089836A838981882F90E08130910541F118
:10054000823091051CF4892B41F078C082309105EE
:10055000D1F1039709F451C071C08A81882351F405
:100560008AE390E0FC0120818AE390E0207FFC0197
:1005700020835DC08A81813009F059C08AE390E010
:10058000FC0120818AE390E02F60FC0120834FC0B2
:100590008A81882351F487E390E0FC01208187E37E
:1005A00090E0207FFC01208344C08A81813009F0E3
:1005B00040C087E390E0FC01208187E390E02F605A
:1005C000FC01208336C08A81882351F484E390E0C3
:1005D000FC01208184E390E0207FFC0120832BC07C
:1005E0008A81813041F584E390E0FC01208184E33D
:1005F00090E02F60FC0120831EC08A81882351F483
:1006000081E390E0FC01208181E390E0207FFC0108
:10061000208313C08A81813081F481E390E0FC0162
:10062000208181E390E02F60FC01208306C0000060
:1006300005C0000003C0000001C0000000000F90D2
:100640000F90DF91CF910895CF93DF9300D0CDB776
:10065000DEB789836A838981882F90E08130910594
:1006600001F1823091051CF4892B39F056C082309B
:10067000910559F10397E9F150C08BE390E0FC013B
:1006800020818BE390E0207FFC0120838BE390E0CE
:10069000FC0130818BE390E02A81232BFC01208335
:1006A0003CC088E390E0FC01208188E390E0207F5B
:1006B000FC01208388E390E0FC01308188E390E036
:1006C0002A81232BFC01208328C085E390E0FC01D4
:1006D000208185E390E0207FFC01208385E390E08A
:1006E000FC01308185E390E02A81232BFC012083EB
:1006F00014C082E390E0FC01208182E390E0207F3F
:10070000FC01208382E390E0FC01308182E390E0F1
:100710002A81232BFC012083000000000F900F9002
:10072000DF91CF910895CF93DF9300D0CDB7DEB79F
:1007300089836A838981882F90E08130910541F116
:10074000823091051CF4892B41F078C082309105EC
:10075000D1F1039709F451C071C08A81882351F403
:100760008AE390E0FC0120818AE390E02F70FC0195
:1007700020835DC08A81813009F059C08AE390E00E
:10078000FC0120818AE390E0206FFC0120834FC0B0
:100790008A81882351F487E390E0FC01208187E37C
:1007A00090E02F70FC01208344C08A81813009F0E1
:1007B00040C087E390E0FC01208187E390E0206F58
:1007C000FC01208336C08A81882351F484E390E0C1
:1007D000FC01208184E390E02F70FC0120832BC07A
:1007E0008A81813041F584E390E0FC01208184E33B
:1007F00090E0206FFC0120831EC08A81882351F481
:1008000081E390E0FC01208181E390E02F70FC0106
:10081000208313C08A81813081F481E390E0FC0160
:10082000208181E390E0206FFC01208306C000005E
:1008300005C0000003C0000001C0000000000F90D0
:100840000F90DF91CF910895CF93DF9300D0CDB774
:10085000DEB789836A838981882F90E08130910592
:1008600059F1823091051CF4892B49F07CC082300B
:10087000910509F43EC0039709F458C074C08BE396
:1008800090E0FC0120818BE390E02F70FC0120833D
:100890008BE390E0FC018081282F8A81882F90E0F3
:1008A00082959295907F9827807F9827282B8BE3BD
:1008B00090E0FC01208357C088E390E0FC01208198
:1008C00088E390E02F70FC01208388E390E0FC0136
:1008D0008081282F8A81882F90E082959295907F41
:1008E0009827807F9827282B88E390E0FC012083BD
:1008F0003AC085E390E0FC01208185E390E02F7011
:10090000FC01208385E390E0FC018081282F8A810F
:10091000882F90E082959295907F9827807F9827E6
:10092000282B85E390E0FC0120831DC082E390E04A
:10093000FC01208182E390E02F70FC01208382E3A0
:1009400090E0FC018081282F8A81882F90E0829599
:100950009295907F9827807F9827282B82E390E0BC
:10096000FC012083000000000F900F90DF91CF91D9
:100970000895CF93DF93CDB7DEB78FE590E0FC010C
:1009800020818FE590E02068FC0120830000DF914A
:10099000CF910895CF93DF93CDB7DEB783E590E095
:1009A000FC01208183E590E02860FC01208383E541
:1009B00090E0FC01208183E590E02F7BFC01208307
:1009C00083E590E0FC01208183E590E02F7DFC0130
:1009D000208383E590E0FC01208183E590E02F7E79
:1009E000FC012083000083E590E0FC01208183E589
:1009F00090E02460FC01208383E590E0FC012081ED
:100A000083E590E02D7FFC01208383E590E0FC01ED
:100A1000208183E590E02E7FFC01208389E590E032
:100A2000FC01208189E590E02260FC012083000028
:100A3000DF91CF910895CF93DF930F92CDB7DEB7BB
:100A4000898382E590E02981FC01208300000F90DA
:100A5000DF91CF910895CF93DF930F92CDB7DEB79B
:100A600089838CE590E02981FC01208300000F90B0
:100A7000DF91CF910895CF93DF93CDB7DEB741E0FB
:100A800067E082E00E943E008AEF0E942B050E94F0
:100A9000CA040E94B904FFCF1F920F920FB60F92A3
:100AA00011242F933F934F935F936F937F938F9373
:100AB0009F93AF93BF93EF93FF93CF93DF93CDB704
:100AC000DEB7809160008F5F80936000809160004E
:100AD0008A3FD1F480916100882349F441E067E0C6
:100AE00082E00E94390181E0809361000DC0809115
:100AF0006100813049F440E067E082E00E94390102
:100B000010926100109260000000DF91CF91FF9180
:100B1000EF91BF91AF919F918F917F916F915F9175
:100B20004F913F912F910F900FBE0F901F901895EE
:040B3000F894FFCF67
:00000001FF
