:100000000C942A000C9434000C9434000C943400AA
:100010000C9434000C9434000C9434000C94340090
:100020000C9434000C9434000C9434000C94340080
:100030000C9434000C9434000C9434000C94340070
:100040000C9434000C9434000C9434000C94340060
:100050000C94340011241FBECFE5D8E0DEBFCDBF25
:100060000E9424050C9460050C940000DF93CF934C
:1000700000D000D00F92CDB7DEB789836A834B835F
:100080008981282F30E03D832C838C819D818130B4
:10009000910509F447C02C813D81223031052CF4B3
:1000A0008C819D81009771F0CBC02C813D812230E5
:1000B000310509F467C08C819D818330910509F475
:1000C00091C0BEC08B818823A9F4AAE3B0E0EAE323
:1000D000F0E08081482F8A81282F30E081E090E095
:1000E000022E02C0880F991F0A94E2F7809584239C
:1000F0008C93A6C08B81813009F0A2C0AAE3B0E046
:10010000EAE3F0E08081482F8A81282F30E081E007
:1001100090E0022E02C0880F991F0A94E2F7842B08
:100120008C938EC08B818823A9F4A7E3B0E0E7E32A
:10013000F0E08081482F8A81282F30E081E090E034
:10014000022E02C0880F991F0A94E2F7809584233B
:100150008C9376C08B81813009F072C0A7E3B0E048
:10016000E7E3F0E08081482F8A81282F30E081E0AA
:1001700090E0022E02C0880F991F0A94E2F7842BA8
:100180008C935EC08B818823A9F4A4E3B0E0E4E300
:10019000F0E08081482F8A81282F30E081E090E0D4
:1001A000022E02C0880F991F0A94E2F780958423DB
:1001B0008C9346C08B81813009F042C0A4E3B0E04B
:1001C000E4E3F0E08081482F8A81282F30E081E04D
:1001D00090E0022E02C0880F991F0A94E2F7842B48
:1001E0008C932EC08B818823A9F4A1E3B0E0E1E3D6
:1001F000F0E08081482F8A81282F30E081E090E074
:10020000022E02C0880F991F0A94E2F7809584237A
:100210008C9316C08B81813099F4A1E3B0E0E1E3C7
:10022000F0E08081482F8A81282F30E081E090E043
:10023000022E02C0880F991F0A94E2F7842B8C9338
:100240000F900F900F900F900F90CF91DF91089526
:10025000DF93CF9300D000D00F92CDB7DEB7898364
:100260006A834B838981282F30E03D832C838C81E6
:100270009D818130910509F447C02C813D81223058
:1002800031052CF48C819D81009771F0CBC02C81BD
:100290003D812230310509F467C08C819D81833016
:1002A000910509F491C0BEC08B818823A9F4ABE30A
:1002B000B0E0EBE3F0E08081482F8A81282F30E026
:1002C00081E090E0022E02C0880F991F0A94E2F7A5
:1002D000809584238C93A6C08B81813009F0A2C0C5
:1002E000ABE3B0E0EBE3F0E08081482F8A81282F78
:1002F00030E081E090E0022E02C0880F991F0A943E
:10030000E2F7842B8C938EC08B818823A9F4A8E319
:10031000B0E0E8E3F0E08081482F8A81282F30E0C8
:1003200081E090E0022E02C0880F991F0A94E2F744
:10033000809584238C9376C08B81813009F072C0C4
:10034000A8E3B0E0E8E3F0E08081482F8A81282F1D
:1003500030E081E090E0022E02C0880F991F0A94DD
:10036000E2F7842B8C935EC08B818823A9F4A5E3EC
:10037000B0E0E5E3F0E08081482F8A81282F30E06B
:1003800081E090E0022E02C0880F991F0A94E2F7E4
:10039000809584238C9346C08B81813009F042C0C4
:1003A000A5E3B0E0E5E3F0E08081482F8A81282FC3
:1003B00030E081E090E0022E02C0880F991F0A947D
:1003C000E2F7842B8C932EC08B818823A9F4A2E3BF
:1003D000B0E0E2E3F0E08081482F8A81282F30E00E
:1003E00081E090E0022E02C0880F991F0A94E2F784
:1003F000809584238C9316C08B81813099F4A2E37D
:10040000B0E0E2E3F0E08081482F8A81282F30E0DD
:1004100081E090E0022E02C0880F991F0A94E2F753
:10042000842B8C930F900F900F900F900F90CF9183
:10043000DF910895DF93CF9300D000D00F92CDB716
:10044000DEB789836A838981282F30E03D832C833E
:100450004C815D814130510549F18C819D81823013
:10046000910534F42C813D812115310561F057C08F
:100470004C815D814230510561F18C819D818330D9
:100480009105D1F14CC0E9E3F0E08081282F30E004
:100490008A81882F90E0A90102C0559547958A95D9
:1004A000E2F7CA01582F51705B833AC0E6E3F0E0EF
:1004B0008081282F30E08A81882F90E0A90102C036
:1004C000559547958A95E2F7CA01582F51705B837D
:1004D00027C0E3E3F0E08081282F30E08A81882F75
:1004E00090E0A90102C0559547958A95E2F7CA01A7
:1004F000582F51705B8314C0E0E3F0E08081282F17
:1005000030E08A81882F90E0A90102C05595479577
:100510008A95E2F7CA01582F51705B8301C01B8294
:100520008B810F900F900F900F900F90CF91DF91D4
:100530000895DF93CF9300D000D0CDB7DEB7898385
:100540006A838981282F30E03C832B838B819C81B7
:100550008130910569F12B813C81223031052CF4E9
:100560008B819C81009769F064C02B813C81223093
:100570003105A1F18B819C818330910509F444C040
:1005800058C08A81882341F4AAE3B0E0EAE3F0E0AE
:100590008081807F8C934DC08A81813009F049C071
:1005A000AAE3B0E0EAE3F0E080818F608C9341C081
:1005B0008A81882341F4A7E3B0E0E7E3F0E080819B
:1005C000807F8C9336C08A81813099F5A7E3B0E0B3
:1005D000E7E3F0E080818F608C932BC08A818823D1
:1005E00041F4A4E3B0E0E4E3F0E08081807F8C9309
:1005F00020C08A818130E9F4A4E3B0E0E4E3F0E0D4
:1006000080818F608C9315C08A81882341F4A1E397
:10061000B0E0E1E3F0E08081807F8C930AC08A81C2
:10062000813039F4A1E3B0E0E1E3F0E080818F6054
:100630008C930F900F900F900F90CF91DF910895B2
:10064000DF93CF9300D000D0CDB7DEB789836A8324
:100650008981282F30E03C832B838B819C818130E2
:10066000910529F12B813C81223031052CF48B81BD
:100670009C81009761F04AC02B813C81223031057A
:1006800031F18B819C818330910589F13FC0ABE3CF
:10069000B0E0EBE3F0E08081807F8C93ABE3B0E0EF
:1006A000EBE3F0E090818A81892B8C932FC0A8E343
:1006B000B0E0E8E3F0E08081807F8C93A8E3B0E0D5
:1006C000E8E3F0E090818A81892B8C931FC0A5E339
:1006D000B0E0E5E3F0E08081807F8C93A5E3B0E0BB
:1006E000E5E3F0E090818A81892B8C930FC0A2E32F
:1006F000B0E0E2E3F0E08081807F8C93A2E3B0E0A1
:10070000E2E3F0E090818A81892B8C930F900F9027
:100710000F900F90CF91DF910895DF93CF9300D08A
:1007200000D0CDB7DEB789836A838981282F30E076
:100730003C832B838B819C818130910569F12B81D6
:100740003C81223031052CF48B819C81009769F02B
:1007500064C02B813C8122303105A1F18B819C81C9
:100760008330910509F444C058C08A81882341F43C
:10077000AAE3B0E0EAE3F0E080818F708C934DC093
:100780008A81813009F049C0AAE3B0E0EAE3F0E0F1
:100790008081806F8C9341C08A81882341F4A7E3D4
:1007A000B0E0E7E3F0E080818F708C9336C08A81FF
:1007B000813099F5A7E3B0E0E7E3F0E08081806F56
:1007C0008C932BC08A81882341F4A4E3B0E0E4E356
:1007D000F0E080818F708C9320C08A818130E9F4B1
:1007E000A4E3B0E0E4E3F0E08081806F8C9315C077
:1007F0008A81882341F4A1E3B0E0E1E3F0E0808165
:100800008F708C930AC08A81813039F4A1E3B0E003
:10081000E1E3F0E08081806F8C930F900F900F9058
:100820000F90CF91DF910895DF93CF9300D000D048
:10083000CDB7DEB789836A838981282F30E03C8376
:100840002B838B819C818130910579F12B813C81B7
:10085000223031052CF48B819C81009769F06FC0A8
:100860002B813C8122303105C9F18B819C81833001
:10087000910509F44CC063C0ABE3B0E0EBE3F0E0FA
:1008800080818F708C93ABE3B0E0EBE3F0E080818C
:10089000282F8A81882F90E082959295907F9827C3
:1008A000807F9827822B8C934AC0A8E3B0E0E8E3CE
:1008B000F0E080818F708C93A8E3B0E0E8E3F0E093
:1008C0008081282F8A81882F90E082959295907F51
:1008D0009827807F9827822B8C9331C0A5E3B0E0C6
:1008E000E5E3F0E080818F708C93A5E3B0E0E5E371
:1008F000F0E08081282F8A81882F90E08295929560
:10090000907F9827807F9827822B8C9318C0A2E332
:10091000B0E0E2E3F0E080818F708C93A2E3B0E07E
:10092000E2E3F0E08081282F8A81882F90E0829591
:100930009295907F9827807F9827822B8C930F9099
:100940000F900F900F90CF91DF910895DF93CF9389
:10095000CDB7DEB7A3E5B0E0E3E5F0E080818860E5
:100960008C93A3E5B0E0E3E5F0E080818F7B8C938E
:10097000A3E5B0E0E3E5F0E080818F7D8C93A3E513
:10098000B0E0E3E5F0E0808180618C93A3E5B0E026
:10099000E3E5F0E0808184608C93A3E5B0E0E3E5DB
:1009A000F0E080818D7F8C93A3E5B0E0E3E5F0E09B
:1009B000808181608C93A3E5B0E0E3E5F0E0808185
:1009C0008F778C93CF91DF910895DF93CF93CDB73D
:1009D000DEB7A9E5B0E0E9E5F0E0808181608C93C5
:1009E000CF91DF910895DF93CF930F92CDB7DEB70C
:1009F0008983E2E5F0E0898180830F90CF91DF91D8
:100A00000895DF93CF9300D0CDB7DEB79A83898363
:100A1000E8E5F0E08081882F90E081709070882375
:100A200061F089819A8101969A838983A8E5B0E073
:100A3000E8E5F0E0808181608C9389819A810F9054
:100A40000F90CF91DF910895DF93CF9300D000D026
:100A50000F92CDB7DEB782E060E041E00E94360041
:100A60000E94A6041B821A8281E0898382E060E0F2
:100A700049810E9428018A819B810E9401059B83F4
:100A80008A838A819B8127E0803D9207A0F31B82A5
:100A90001A8287E80E94F3041C828981882311F45A
:100AA00081E08C8382E060E04C810E9428011D82FD
:100AB0008981882311F421E02D838D818983DBCF07
:040AC000F894FFCFD8
:00000001FF
