:100000000C942A000C9434000C9434000C943400AA
:100010000C9434000C9434000C9434000C94340090
:100020000C9434000C9434000C9434000C94340080
:100030000C9434000C9434000C9434000C94340070
:100040000C9434000C9434000C9434000C94340060
:100050000C94340011241FBECFE5D8E0DEBFCDBF25
:100060000E94C0020C94F4020C940000813029F12B
:10007000813038F0823009F43CC0833009F06EC022
:1000800053C0442361F42AB381E090E002C0880F9A
:10009000991F6A95E2F7809582238ABB08954130C3
:1000A00009F05CC02AB381E090E002C0880F991F7C
:1000B0006A95E2F7282B2ABB0895442361F427B3FD
:1000C00081E090E002C0880F991F6A95E2F7809561
:1000D000822387BB0895413009F040C027B381E0F7
:1000E00090E002C0880F991F6A95E2F7282B27BB82
:1000F0000895442361F424B381E090E002C0880FA6
:10010000991F6A95E2F78095822384BB0895413058
:1001100029F524B381E090E002C0880F991F6A9509
:10012000E2F7282B24BB0895442361F421B381E036
:1001300090E002C0880F991F6A95E2F780958223AC
:1001400081BB0895413051F421B381E090E002C0B9
:10015000880F991F6A95E2F7282B21BB08958130FB
:1001600029F1813038F0823009F43CC0833009F045
:100170006EC053C0442361F42BB381E090E002C011
:10018000880F991F6A95E2F7809582238BBB0895AB
:10019000413009F05CC02BB381E090E002C0880FD1
:1001A000991F6A95E2F7282B2BBB0895442361F42D
:1001B00028B381E090E002C0880F991F6A95E2F7AA
:1001C0008095822388BB0895413009F040C028B350
:1001D00081E090E002C0880F991F6A95E2F7282B12
:1001E00028BB0895442361F425B381E090E002C068
:1001F000880F991F6A95E2F78095822385BB089541
:10020000413029F525B381E090E002C0880F991FA5
:100210006A95E2F7282B25BB0895442361F422B3A5
:1002200081E090E002C0880F991F6A95E2F78095FF
:10023000822382BB0895413051F422B381E090E0E3
:1002400002C0880F991F6A95E2F7282B22BB0895F8
:10025000813051F0813030F0823041F0833079F0DC
:1002600080E0089589B303C086B301C083B390E0F2
:1002700002C0959587956A95E2F78170089580B3DD
:1002800090E002C0959587956A95E2F78170089590
:10029000813091F0813028F08230C9F0833069F5E7
:1002A00021C0662319F48AB3807F04C0613029F528
:1002B0008AB38F608ABB0895662319F487B3807F61
:1002C00004C06130D1F487B38F6087BB0895662383
:1002D00019F484B3807F04C0613079F484B38F60F3
:1002E00084BB0895662321F481B3807F81BB089588
:1002F000613019F481B38F6081BB0895813071F052
:10030000813028F0823089F08330E1F415C08BB35E
:10031000807F8BBB8BB3862B8BBB089588B3807F8C
:1003200088BB88B3862B88BB089585B3807F85BB47
:1003300085B3862B85BB089582B3807F82BB82B351
:10034000862B82BB0895813091F0813028F0823075
:10035000C9F0833069F521C0662319F48AB38F7020
:1003600004C0613029F58AB3806F8ABB0895662383
:1003700019F487B38F7004C06130D1F487B3806FF4
:1003800087BB0895662319F484B38F7004C061306D
:1003900079F484B3806F84BB0895662321F481B31C
:1003A0008F7081BB0895613019F481B3806F81BB78
:1003B0000895813081F0813028F08230A9F08330B7
:1003C00021F51BC08BB38F708BBB8BB36295607FA5
:1003D000862B8BBB089588B38F7088BB88B36295DA
:1003E000607F862B88BB089585B38F7085BB85B3EE
:1003F0006295607F862B85BB089582B38F7082BB28
:1004000082B36295607F862B82BB0895882319F0A2
:10041000880F82B9089586B7806486BF86B78460E6
:1004200086BF0998089883E080B90895880F82B93B
:1004300086B7806486BF86B7846086BF089586B716
:10044000806286BF86B7806886BF06B607FEFDCF8E
:1004500081B190E0887F883009F091E0892F08957C
:1004600086B7806286BF86B7806886BF06B607FEFD
:10047000FDCF81B1887F803111F082E0089580E066
:100480000895880F83B9189886B78F7D86BF86B781
:10049000806886BF06B607FEFDCF81B1887F8831B0
:1004A00011F083E0089580E00895880F83B9189AC9
:1004B00086B78F7D86BF86B7806886BF06B607FE83
:1004C000FDCF81B1887F803411F084E0089580E011
:1004D000089583B986B7806886BF06B607FEFDCF4C
:1004E00081B1887F883211F085E0089580E0089519
:1004F000FC0186B7806886BF06B607FEFDCF81B1D6
:10050000887F803511F086E0089583B1808380E094
:10051000089506C086B7806886BF06B607FEFDCF81
:1005200081B1887F8036B1F7089586B7806886BF2D
:1005300006B607FEFDCF81B1887F803809F483B10C
:10054000089506C086B7806886BF06B607FEFDCF51
:1005500081B1887F883AB1F7089583B986B78068FA
:1005600086BF06B607FEFDCF81B1887F803CE1F7EC
:10057000089586B7806186BF86B7806886BF089574
:10058000CF93DF9381E060E040E00E94360081E09D
:1005900060E041E00E94AF0080E00E9406020E94FD
:1005A0001F0280E20E944102C8ECD0E081E060E0DE
:1005B0000E942801882311F481E007C081E060E0F7
:1005C0000E942801813019F480E00E94690280EDC8
:1005D00097E0FE013197F1F70197D9F70E943002B9
:0C05E00080E20E944102E2CFF894FFCFBD
:00000001FF
